{
  "_format": "hh-sol-artifact-1",
  "contractName": "NFTMarketplace",
  "sourceName": "contracts/NFTMarketPlace.sol",
  "abi": [
    {
      "inputs": [],
      "stateMutability": "nonpayable",
      "type": "constructor"
    },
    {
      "anonymous": false,
      "inputs": [
        {
          "indexed": true,
          "internalType": "address",
          "name": "owner",
          "type": "address"
        },
        {
          "indexed": true,
          "internalType": "address",
          "name": "approved",
          "type": "address"
        },
        {
          "indexed": true,
          "internalType": "uint256",
          "name": "tokenId",
          "type": "uint256"
        }
      ],
      "name": "Approval",
      "type": "event"
    },
    {
      "anonymous": false,
      "inputs": [
        {
          "indexed": true,
          "internalType": "address",
          "name": "owner",
          "type": "address"
        },
        {
          "indexed": true,
          "internalType": "address",
          "name": "operator",
          "type": "address"
        },
        {
          "indexed": false,
          "internalType": "bool",
          "name": "approved",
          "type": "bool"
        }
      ],
      "name": "ApprovalForAll",
      "type": "event"
    },
    {
      "anonymous": false,
      "inputs": [
        {
          "indexed": true,
          "internalType": "uint256",
          "name": "tokenId",
          "type": "uint256"
        },
        {
          "indexed": false,
          "internalType": "address",
          "name": "seller",
          "type": "address"
        },
        {
          "indexed": false,
          "internalType": "address",
          "name": "owner",
          "type": "address"
        },
        {
          "indexed": false,
          "internalType": "uint256",
          "name": "price",
          "type": "uint256"
        },
        {
          "indexed": false,
          "internalType": "bool",
          "name": "sold",
          "type": "bool"
        }
      ],
      "name": "MarketItemCreated",
      "type": "event"
    },
    {
      "anonymous": false,
      "inputs": [
        {
          "indexed": true,
          "internalType": "address",
          "name": "from",
          "type": "address"
        },
        {
          "indexed": true,
          "internalType": "address",
          "name": "to",
          "type": "address"
        },
        {
          "indexed": true,
          "internalType": "uint256",
          "name": "tokenId",
          "type": "uint256"
        }
      ],
      "name": "Transfer",
      "type": "event"
    },
    {
      "inputs": [
        {
          "internalType": "address",
          "name": "to",
          "type": "address"
        },
        {
          "internalType": "uint256",
          "name": "tokenId",
          "type": "uint256"
        }
      ],
      "name": "approve",
      "outputs": [],
      "stateMutability": "nonpayable",
      "type": "function"
    },
    {
      "inputs": [
        {
          "internalType": "address",
          "name": "owner",
          "type": "address"
        }
      ],
      "name": "balanceOf",
      "outputs": [
        {
          "internalType": "uint256",
          "name": "",
          "type": "uint256"
        }
      ],
      "stateMutability": "view",
      "type": "function"
    },
    {
      "inputs": [
        {
          "internalType": "uint256",
          "name": "tokenId",
          "type": "uint256"
        }
      ],
      "name": "createMarketSale",
      "outputs": [],
      "stateMutability": "payable",
      "type": "function"
    },
    {
      "inputs": [
        {
          "internalType": "string",
          "name": "tokenURI",
          "type": "string"
        },
        {
          "internalType": "uint256",
          "name": "price",
          "type": "uint256"
        }
      ],
      "name": "createToken",
      "outputs": [
        {
          "internalType": "uint256",
          "name": "",
          "type": "uint256"
        }
      ],
      "stateMutability": "payable",
      "type": "function"
    },
    {
      "inputs": [],
      "name": "fetchItemsListed",
      "outputs": [
        {
          "components": [
            {
              "internalType": "uint256",
              "name": "tokenId",
              "type": "uint256"
            },
            {
              "internalType": "address payable",
              "name": "seller",
              "type": "address"
            },
            {
              "internalType": "address payable",
              "name": "owner",
              "type": "address"
            },
            {
              "internalType": "uint256",
              "name": "price",
              "type": "uint256"
            },
            {
              "internalType": "bool",
              "name": "sold",
              "type": "bool"
            }
          ],
          "internalType": "struct NFTMarketplace.MarketItem[]",
          "name": "",
          "type": "tuple[]"
        }
      ],
      "stateMutability": "view",
      "type": "function"
    },
    {
      "inputs": [],
      "name": "fetchMarketItems",
      "outputs": [
        {
          "components": [
            {
              "internalType": "uint256",
              "name": "tokenId",
              "type": "uint256"
            },
            {
              "internalType": "address payable",
              "name": "seller",
              "type": "address"
            },
            {
              "internalType": "address payable",
              "name": "owner",
              "type": "address"
            },
            {
              "internalType": "uint256",
              "name": "price",
              "type": "uint256"
            },
            {
              "internalType": "bool",
              "name": "sold",
              "type": "bool"
            }
          ],
          "internalType": "struct NFTMarketplace.MarketItem[]",
          "name": "",
          "type": "tuple[]"
        }
      ],
      "stateMutability": "view",
      "type": "function"
    },
    {
      "inputs": [],
      "name": "fetchMyNFTs",
      "outputs": [
        {
          "components": [
            {
              "internalType": "uint256",
              "name": "tokenId",
              "type": "uint256"
            },
            {
              "internalType": "address payable",
              "name": "seller",
              "type": "address"
            },
            {
              "internalType": "address payable",
              "name": "owner",
              "type": "address"
            },
            {
              "internalType": "uint256",
              "name": "price",
              "type": "uint256"
            },
            {
              "internalType": "bool",
              "name": "sold",
              "type": "bool"
            }
          ],
          "internalType": "struct NFTMarketplace.MarketItem[]",
          "name": "",
          "type": "tuple[]"
        }
      ],
      "stateMutability": "view",
      "type": "function"
    },
    {
      "inputs": [
        {
          "internalType": "uint256",
          "name": "tokenId",
          "type": "uint256"
        }
      ],
      "name": "getApproved",
      "outputs": [
        {
          "internalType": "address",
          "name": "",
          "type": "address"
        }
      ],
      "stateMutability": "view",
      "type": "function"
    },
    {
      "inputs": [],
      "name": "getListingPrice",
      "outputs": [
        {
          "internalType": "uint256",
          "name": "",
          "type": "uint256"
        }
      ],
      "stateMutability": "view",
      "type": "function"
    },
    {
      "inputs": [],
      "name": "getOwnerCommissionPercentage",
      "outputs": [
        {
          "internalType": "uint256",
          "name": "",
          "type": "uint256"
        }
      ],
      "stateMutability": "view",
      "type": "function"
    },
    {
      "inputs": [
        {
          "internalType": "address",
          "name": "owner",
          "type": "address"
        },
        {
          "internalType": "address",
          "name": "operator",
          "type": "address"
        }
      ],
      "name": "isApprovedForAll",
      "outputs": [
        {
          "internalType": "bool",
          "name": "",
          "type": "bool"
        }
      ],
      "stateMutability": "view",
      "type": "function"
    },
    {
      "inputs": [],
      "name": "name",
      "outputs": [
        {
          "internalType": "string",
          "name": "",
          "type": "string"
        }
      ],
      "stateMutability": "view",
      "type": "function"
    },
    {
      "inputs": [
        {
          "internalType": "uint256",
          "name": "tokenId",
          "type": "uint256"
        }
      ],
      "name": "ownerOf",
      "outputs": [
        {
          "internalType": "address",
          "name": "",
          "type": "address"
        }
      ],
      "stateMutability": "view",
      "type": "function"
    },
    {
      "inputs": [
        {
          "internalType": "uint256",
          "name": "tokenId",
          "type": "uint256"
        },
        {
          "internalType": "uint256",
          "name": "price",
          "type": "uint256"
        }
      ],
      "name": "resellToken",
      "outputs": [],
      "stateMutability": "payable",
      "type": "function"
    },
    {
      "inputs": [
        {
          "internalType": "address",
          "name": "from",
          "type": "address"
        },
        {
          "internalType": "address",
          "name": "to",
          "type": "address"
        },
        {
          "internalType": "uint256",
          "name": "tokenId",
          "type": "uint256"
        }
      ],
      "name": "safeTransferFrom",
      "outputs": [],
      "stateMutability": "nonpayable",
      "type": "function"
    },
    {
      "inputs": [
        {
          "internalType": "address",
          "name": "from",
          "type": "address"
        },
        {
          "internalType": "address",
          "name": "to",
          "type": "address"
        },
        {
          "internalType": "uint256",
          "name": "tokenId",
          "type": "uint256"
        },
        {
          "internalType": "bytes",
          "name": "_data",
          "type": "bytes"
        }
      ],
      "name": "safeTransferFrom",
      "outputs": [],
      "stateMutability": "nonpayable",
      "type": "function"
    },
    {
      "inputs": [
        {
          "internalType": "address",
          "name": "operator",
          "type": "address"
        },
        {
          "internalType": "bool",
          "name": "approved",
          "type": "bool"
        }
      ],
      "name": "setApprovalForAll",
      "outputs": [],
      "stateMutability": "nonpayable",
      "type": "function"
    },
    {
      "inputs": [
        {
          "internalType": "bytes4",
          "name": "interfaceId",
          "type": "bytes4"
        }
      ],
      "name": "supportsInterface",
      "outputs": [
        {
          "internalType": "bool",
          "name": "",
          "type": "bool"
        }
      ],
      "stateMutability": "view",
      "type": "function"
    },
    {
      "inputs": [],
      "name": "symbol",
      "outputs": [
        {
          "internalType": "string",
          "name": "",
          "type": "string"
        }
      ],
      "stateMutability": "view",
      "type": "function"
    },
    {
      "inputs": [
        {
          "internalType": "uint256",
          "name": "tokenId",
          "type": "uint256"
        }
      ],
      "name": "tokenURI",
      "outputs": [
        {
          "internalType": "string",
          "name": "",
          "type": "string"
        }
      ],
      "stateMutability": "view",
      "type": "function"
    },
    {
      "inputs": [
        {
          "internalType": "address",
          "name": "from",
          "type": "address"
        },
        {
          "internalType": "address",
          "name": "to",
          "type": "address"
        },
        {
          "internalType": "uint256",
          "name": "tokenId",
          "type": "uint256"
        }
      ],
      "name": "transferFrom",
      "outputs": [],
      "stateMutability": "nonpayable",
      "type": "function"
    },
    {
      "inputs": [
        {
          "internalType": "uint256",
          "name": "_listingPrice",
          "type": "uint256"
        }
      ],
      "name": "updateListingPrice",
      "outputs": [],
      "stateMutability": "payable",
      "type": "function"
    },
    {
      "inputs": [
        {
          "internalType": "uint256",
          "name": "_ownerCommissionPercentage",
          "type": "uint256"
        }
      ],
      "name": "updateOwnerCommissionPercentage",
      "outputs": [],
      "stateMutability": "payable",
      "type": "function"
    }
  ],
  "bytecode": "0x60806040526658d15e17628000600955600f600a55600a546103e8620000269190620001ce565b600b553480156200003657600080fd5b506040518060400160405280600981526020017f4e465447616c61787900000000000000000000000000000000000000000000008152506040518060400160405280600481526020017f4e465447000000000000000000000000000000000000000000000000000000008152508160009080519060200190620000bb9291906200011e565b508060019080519060200190620000d49291906200011e565b50505033600c60006101000a81548173ffffffffffffffffffffffffffffffffffffffff021916908373ffffffffffffffffffffffffffffffffffffffff160217905550620002a7565b8280546200012c9062000213565b90600052602060002090601f0160209004810192826200015057600085556200019c565b82601f106200016b57805160ff19168380011785556200019c565b828001600101855582156200019c579182015b828111156200019b5782518255916020019190600101906200017e565b5b509050620001ab9190620001af565b5090565b5b80821115620001ca576000816000905550600101620001b0565b5090565b6000620001db8262000209565b9150620001e88362000209565b925082821015620001fe57620001fd62000249565b5b828203905092915050565b6000819050919050565b600060028204905060018216806200022c57607f821691505b6020821081141562000243576200024262000278565b5b50919050565b7f4e487b7100000000000000000000000000000000000000000000000000000000600052601160045260246000fd5b7f4e487b7100000000000000000000000000000000000000000000000000000000600052602260045260246000fd5b6145a580620002b76000396000f3fe6080604052600436106101405760003560e01c80636352211e116100b6578063b88d4fde1161006f578063b88d4fde14610447578063be9af53614610470578063c87b56dd1461048c578063e219fc75146104c9578063e985e9c5146104e5578063f060a4471461052257610140565b80636352211e1461032d57806370a082311461036a57806372b3b620146103a757806395d89b41146103d7578063a22cb46514610402578063ae677aa31461042b57610140565b806312e855851161010857806312e855851461023e578063202e37401461026957806323b872dd146102945780633ff7abca146102bd57806342842e0e146102d957806345f8fa801461030257610140565b806301ffc9a71461014557806306fdde0314610182578063081812fc146101ad578063095ea7b3146101ea5780630f08efe014610213575b600080fd5b34801561015157600080fd5b5061016c60048036038101906101679190612ff9565b61054d565b60405161017991906136f6565b60405180910390f35b34801561018e57600080fd5b5061019761062f565b6040516101a49190613711565b60405180910390f35b3480156101b957600080fd5b506101d460048036038101906101cf919061309f565b6106c1565b6040516101e19190613628565b60405180910390f35b3480156101f657600080fd5b50610211600480360381019061020c9190612fbd565b610746565b005b34801561021f57600080fd5b5061022861085e565b60405161023591906136d4565b60405180910390f35b34801561024a57600080fd5b50610253610b13565b6040516102609190613a13565b60405180910390f35b34801561027557600080fd5b5061027e610b1d565b60405161028b91906136d4565b60405180910390f35b3480156102a057600080fd5b506102bb60048036038101906102b69190612eb7565b610e57565b005b6102d760048036038101906102d2919061309f565b610eb7565b005b3480156102e557600080fd5b5061030060048036038101906102fb9190612eb7565b610f51565b005b34801561030e57600080fd5b50610317610f71565b60405161032491906136d4565b60405180910390f35b34801561033957600080fd5b50610354600480360381019061034f919061309f565b6112ab565b6040516103619190613628565b60405180910390f35b34801561037657600080fd5b50610391600480360381019061038c9190612e52565b61135d565b60405161039e9190613a13565b60405180910390f35b6103c160048036038101906103bc919061304b565b611415565b6040516103ce9190613a13565b60405180910390f35b3480156103e357600080fd5b506103ec611457565b6040516103f99190613711565b60405180910390f35b34801561040e57600080fd5b5061042960048036038101906104249190612f81565b6114e9565b005b6104456004803603810190610440919061309f565b6114ff565b005b34801561045357600080fd5b5061046e60048036038101906104699190612f06565b611599565b005b61048a6004803603810190610485919061309f565b6115fb565b005b34801561049857600080fd5b506104b360048036038101906104ae919061309f565b611847565b6040516104c09190613711565b60405180910390f35b6104e360048036038101906104de91906130c8565b611999565b005b3480156104f157600080fd5b5061050c60048036038101906105079190612e7b565b611b8e565b60405161051991906136f6565b60405180910390f35b34801561052e57600080fd5b50610537611c22565b6040516105449190613a13565b60405180910390f35b60007f80ac58cd000000000000000000000000000000000000000000000000000000007bffffffffffffffffffffffffffffffffffffffffffffffffffffffff1916827bffffffffffffffffffffffffffffffffffffffffffffffffffffffff1916148061061857507f5b5e139f000000000000000000000000000000000000000000000000000000007bffffffffffffffffffffffffffffffffffffffffffffffffffffffff1916827bffffffffffffffffffffffffffffffffffffffffffffffffffffffff1916145b80610628575061062782611c2c565b5b9050919050565b60606000805461063e90613d0e565b80601f016020809104026020016040519081016040528092919081815260200182805461066a90613d0e565b80156106b75780601f1061068c576101008083540402835291602001916106b7565b820191906000526020600020905b81548152906001019060200180831161069a57829003601f168201915b5050505050905090565b60006106cc82611c96565b61070b576040517f08c379a000000000000000000000000000000000000000000000000000000000815260040161070290613933565b60405180910390fd5b6004600083815260200190815260200160002060009054906101000a900473ffffffffffffffffffffffffffffffffffffffff169050919050565b6000610751826112ab565b90508073ffffffffffffffffffffffffffffffffffffffff168373ffffffffffffffffffffffffffffffffffffffff1614156107c2576040517f08c379a00000000000000000000000000000000000000000000000000000000081526004016107b990613973565b60405180910390fd5b8073ffffffffffffffffffffffffffffffffffffffff166107e1611d02565b73ffffffffffffffffffffffffffffffffffffffff161480610810575061080f8161080a611d02565b611b8e565b5b61084f576040517f08c379a000000000000000000000000000000000000000000000000000000000815260040161084690613833565b60405180910390fd5b6108598383611d0a565b505050565b6060600061086c6007611dc3565b9050600061087a6008611dc3565b6108846007611dc3565b61088e9190613c12565b90506000808267ffffffffffffffff8111156108d3577f4e487b7100000000000000000000000000000000000000000000000000000000600052604160045260246000fd5b60405190808252806020026020018201604052801561090c57816020015b6108f9612c19565b8152602001906001900390816108f15790505b50905060005b84811015610b08573073ffffffffffffffffffffffffffffffffffffffff16600d60006001846109429190613b31565b815260200190815260200160002060020160009054906101000a900473ffffffffffffffffffffffffffffffffffffffff1673ffffffffffffffffffffffffffffffffffffffff161415610af557600060018261099f9190613b31565b90506000600d60008381526020019081526020016000209050806040518060a0016040529081600082015481526020016001820160009054906101000a900473ffffffffffffffffffffffffffffffffffffffff1673ffffffffffffffffffffffffffffffffffffffff1673ffffffffffffffffffffffffffffffffffffffff1681526020016002820160009054906101000a900473ffffffffffffffffffffffffffffffffffffffff1673ffffffffffffffffffffffffffffffffffffffff1673ffffffffffffffffffffffffffffffffffffffff168152602001600382015481526020016004820160009054906101000a900460ff161515151581525050848681518110610ad8577f4e487b7100000000000000000000000000000000000000000000000000000000600052603260045260246000fd5b6020026020010181905250600185610af09190613b31565b945050505b8080610b0090613d71565b915050610912565b508094505050505090565b6000600954905090565b60606000610b2b6007611dc3565b905060008060005b83811015610bd4573373ffffffffffffffffffffffffffffffffffffffff16600d6000600184610b639190613b31565b815260200190815260200160002060020160009054906101000a900473ffffffffffffffffffffffffffffffffffffffff1673ffffffffffffffffffffffffffffffffffffffff161415610bc157600183610bbe9190613b31565b92505b8080610bcc90613d71565b915050610b33565b5060008267ffffffffffffffff811115610c17577f4e487b7100000000000000000000000000000000000000000000000000000000600052604160045260246000fd5b604051908082528060200260200182016040528015610c5057816020015b610c3d612c19565b815260200190600190039081610c355790505b50905060005b84811015610e4c573373ffffffffffffffffffffffffffffffffffffffff16600d6000600184610c869190613b31565b815260200190815260200160002060020160009054906101000a900473ffffffffffffffffffffffffffffffffffffffff1673ffffffffffffffffffffffffffffffffffffffff161415610e39576000600182610ce39190613b31565b90506000600d60008381526020019081526020016000209050806040518060a0016040529081600082015481526020016001820160009054906101000a900473ffffffffffffffffffffffffffffffffffffffff1673ffffffffffffffffffffffffffffffffffffffff1673ffffffffffffffffffffffffffffffffffffffff1681526020016002820160009054906101000a900473ffffffffffffffffffffffffffffffffffffffff1673ffffffffffffffffffffffffffffffffffffffff1673ffffffffffffffffffffffffffffffffffffffff168152602001600382015481526020016004820160009054906101000a900460ff161515151581525050848681518110610e1c577f4e487b7100000000000000000000000000000000000000000000000000000000600052603260045260246000fd5b6020026020010181905250600185610e349190613b31565b945050505b8080610e4490613d71565b915050610c56565b508094505050505090565b610e68610e62611d02565b82611dd1565b610ea7576040517f08c379a0000000000000000000000000000000000000000000000000000000008152600401610e9e906139b3565b60405180910390fd5b610eb2838383611eaf565b505050565b3373ffffffffffffffffffffffffffffffffffffffff16600c60009054906101000a900473ffffffffffffffffffffffffffffffffffffffff1673ffffffffffffffffffffffffffffffffffffffff1614610f47576040517f08c379a0000000000000000000000000000000000000000000000000000000008152600401610f3e906137b3565b60405180910390fd5b80600a8190555050565b610f6c83838360405180602001604052806000815250611599565b505050565b60606000610f7f6007611dc3565b905060008060005b83811015611028573373ffffffffffffffffffffffffffffffffffffffff16600d6000600184610fb79190613b31565b815260200190815260200160002060010160009054906101000a900473ffffffffffffffffffffffffffffffffffffffff1673ffffffffffffffffffffffffffffffffffffffff161415611015576001836110129190613b31565b92505b808061102090613d71565b915050610f87565b5060008267ffffffffffffffff81111561106b577f4e487b7100000000000000000000000000000000000000000000000000000000600052604160045260246000fd5b6040519080825280602002602001820160405280156110a457816020015b611091612c19565b8152602001906001900390816110895790505b50905060005b848110156112a0573373ffffffffffffffffffffffffffffffffffffffff16600d60006001846110da9190613b31565b815260200190815260200160002060010160009054906101000a900473ffffffffffffffffffffffffffffffffffffffff1673ffffffffffffffffffffffffffffffffffffffff16141561128d5760006001826111379190613b31565b90506000600d60008381526020019081526020016000209050806040518060a0016040529081600082015481526020016001820160009054906101000a900473ffffffffffffffffffffffffffffffffffffffff1673ffffffffffffffffffffffffffffffffffffffff1673ffffffffffffffffffffffffffffffffffffffff1681526020016002820160009054906101000a900473ffffffffffffffffffffffffffffffffffffffff1673ffffffffffffffffffffffffffffffffffffffff1673ffffffffffffffffffffffffffffffffffffffff168152602001600382015481526020016004820160009054906101000a900460ff161515151581525050848681518110611270577f4e487b7100000000000000000000000000000000000000000000000000000000600052603260045260246000fd5b60200260200101819052506001856112889190613b31565b945050505b808061129890613d71565b9150506110aa565b508094505050505090565b6000806002600084815260200190815260200160002060009054906101000a900473ffffffffffffffffffffffffffffffffffffffff169050600073ffffffffffffffffffffffffffffffffffffffff168173ffffffffffffffffffffffffffffffffffffffff161415611354576040517f08c379a000000000000000000000000000000000000000000000000000000000815260040161134b90613873565b60405180910390fd5b80915050919050565b60008073ffffffffffffffffffffffffffffffffffffffff168273ffffffffffffffffffffffffffffffffffffffff1614156113ce576040517f08c379a00000000000000000000000000000000000000000000000000000000081526004016113c590613853565b60405180910390fd5b600360008373ffffffffffffffffffffffffffffffffffffffff1673ffffffffffffffffffffffffffffffffffffffff168152602001908152602001600020549050919050565b60006114216007612116565b600061142d6007611dc3565b9050611439338261212c565b6114438185612306565b61144d818461237a565b8091505092915050565b60606001805461146690613d0e565b80601f016020809104026020016040519081016040528092919081815260200182805461149290613d0e565b80156114df5780601f106114b4576101008083540402835291602001916114df565b820191906000526020600020905b8154815290600101906020018083116114c257829003601f168201915b5050505050905090565b6114fb6114f4611d02565b838361257d565b5050565b3373ffffffffffffffffffffffffffffffffffffffff16600c60009054906101000a900473ffffffffffffffffffffffffffffffffffffffff1673ffffffffffffffffffffffffffffffffffffffff161461158f576040517f08c379a0000000000000000000000000000000000000000000000000000000008152600401611586906139d3565b60405180910390fd5b8060098190555050565b6115aa6115a4611d02565b83611dd1565b6115e9576040517f08c379a00000000000000000000000000000000000000000000000000000000081526004016115e0906139b3565b60405180910390fd5b6115f5848484846126ea565b50505050565b6000600d60008381526020019081526020016000206003015490506000600d600084815260200190815260200160002060010160009054906101000a900473ffffffffffffffffffffffffffffffffffffffff169050813414611693576040517f08c379a000000000000000000000000000000000000000000000000000000000815260040161168a906138b3565b60405180910390fd5b33600d600085815260200190815260200160002060020160006101000a81548173ffffffffffffffffffffffffffffffffffffffff021916908373ffffffffffffffffffffffffffffffffffffffff1602179055506001600d600085815260200190815260200160002060040160006101000a81548160ff0219169083151502179055506000600d600085815260200190815260200160002060010160006101000a81548173ffffffffffffffffffffffffffffffffffffffff021916908373ffffffffffffffffffffffffffffffffffffffff1602179055506117776008612116565b611782303385611eaf565b600c60009054906101000a900473ffffffffffffffffffffffffffffffffffffffff1673ffffffffffffffffffffffffffffffffffffffff166108fc6117c734612746565b9081150290604051600060405180830381858888f193505050501580156117f2573d6000803e3d6000fd5b508073ffffffffffffffffffffffffffffffffffffffff166108fc6118163461276a565b9081150290604051600060405180830381858888f19350505050158015611841573d6000803e3d6000fd5b50505050565b606061185282611c96565b611891576040517f08c379a0000000000000000000000000000000000000000000000000000000008152600401611888906138f3565b60405180910390fd5b60006006600084815260200190815260200160002080546118b190613d0e565b80601f01602080910402602001604051908101604052809291908181526020018280546118dd90613d0e565b801561192a5780601f106118ff5761010080835404028352916020019161192a565b820191906000526020600020905b81548152906001019060200180831161190d57829003601f168201915b50505050509050600061193b61278e565b9050600081511415611951578192505050611994565b60008251111561198657808260405160200161196e929190613604565b60405160208183030381529060405292505050611994565b61198f846127a5565b925050505b919050565b3373ffffffffffffffffffffffffffffffffffffffff16600d600084815260200190815260200160002060020160009054906101000a900473ffffffffffffffffffffffffffffffffffffffff1673ffffffffffffffffffffffffffffffffffffffff1614611a3d576040517f08c379a0000000000000000000000000000000000000000000000000000000008152600401611a3490613913565b60405180910390fd5b6009543414611a81576040517f08c379a0000000000000000000000000000000000000000000000000000000008152600401611a7890613993565b60405180910390fd5b6000600d600084815260200190815260200160002060040160006101000a81548160ff02191690831515021790555080600d60008481526020019081526020016000206003018190555033600d600084815260200190815260200160002060010160006101000a81548173ffffffffffffffffffffffffffffffffffffffff021916908373ffffffffffffffffffffffffffffffffffffffff16021790555030600d600084815260200190815260200160002060020160006101000a81548173ffffffffffffffffffffffffffffffffffffffff021916908373ffffffffffffffffffffffffffffffffffffffff160217905550611b7f600861284c565b611b8a333084611eaf565b5050565b6000600560008473ffffffffffffffffffffffffffffffffffffffff1673ffffffffffffffffffffffffffffffffffffffff16815260200190815260200160002060008373ffffffffffffffffffffffffffffffffffffffff1673ffffffffffffffffffffffffffffffffffffffff16815260200190815260200160002060009054906101000a900460ff16905092915050565b6000600a54905090565b60007f01ffc9a7000000000000000000000000000000000000000000000000000000007bffffffffffffffffffffffffffffffffffffffffffffffffffffffff1916827bffffffffffffffffffffffffffffffffffffffffffffffffffffffff1916149050919050565b60008073ffffffffffffffffffffffffffffffffffffffff166002600084815260200190815260200160002060009054906101000a900473ffffffffffffffffffffffffffffffffffffffff1673ffffffffffffffffffffffffffffffffffffffff1614159050919050565b600033905090565b816004600083815260200190815260200160002060006101000a81548173ffffffffffffffffffffffffffffffffffffffff021916908373ffffffffffffffffffffffffffffffffffffffff160217905550808273ffffffffffffffffffffffffffffffffffffffff16611d7d836112ab565b73ffffffffffffffffffffffffffffffffffffffff167f8c5be1e5ebec7d5bd14f71427d1e84f3dd0314c0f7b2291e5b200ac8c7c3b92560405160405180910390a45050565b600081600001549050919050565b6000611ddc82611c96565b611e1b576040517f08c379a0000000000000000000000000000000000000000000000000000000008152600401611e1290613813565b60405180910390fd5b6000611e26836112ab565b90508073ffffffffffffffffffffffffffffffffffffffff168473ffffffffffffffffffffffffffffffffffffffff161480611e9557508373ffffffffffffffffffffffffffffffffffffffff16611e7d846106c1565b73ffffffffffffffffffffffffffffffffffffffff16145b80611ea65750611ea58185611b8e565b5b91505092915050565b8273ffffffffffffffffffffffffffffffffffffffff16611ecf826112ab565b73ffffffffffffffffffffffffffffffffffffffff1614611f25576040517f08c379a0000000000000000000000000000000000000000000000000000000008152600401611f1c90613773565b60405180910390fd5b600073ffffffffffffffffffffffffffffffffffffffff168273ffffffffffffffffffffffffffffffffffffffff161415611f95576040517f08c379a0000000000000000000000000000000000000000000000000000000008152600401611f8c906137d3565b60405180910390fd5b611fa08383836128a8565b611fab600082611d0a565b6001600360008573ffffffffffffffffffffffffffffffffffffffff1673ffffffffffffffffffffffffffffffffffffffff1681526020019081526020016000206000828254611ffb9190613c12565b925050819055506001600360008473ffffffffffffffffffffffffffffffffffffffff1673ffffffffffffffffffffffffffffffffffffffff16815260200190815260200160002060008282546120529190613b31565b92505081905550816002600083815260200190815260200160002060006101000a81548173ffffffffffffffffffffffffffffffffffffffff021916908373ffffffffffffffffffffffffffffffffffffffff160217905550808273ffffffffffffffffffffffffffffffffffffffff168473ffffffffffffffffffffffffffffffffffffffff167fddf252ad1be2c89b69c2b068fc378daa952ba7f163c4a11628f55a4df523b3ef60405160405180910390a46121118383836128ad565b505050565b6001816000016000828254019250508190555050565b600073ffffffffffffffffffffffffffffffffffffffff168273ffffffffffffffffffffffffffffffffffffffff16141561219c576040517f08c379a0000000000000000000000000000000000000000000000000000000008152600401612193906138d3565b60405180910390fd5b6121a581611c96565b156121e5576040517f08c379a00000000000000000000000000000000000000000000000000000000081526004016121dc90613793565b60405180910390fd5b6121f1600083836128a8565b6001600360008473ffffffffffffffffffffffffffffffffffffffff1673ffffffffffffffffffffffffffffffffffffffff16815260200190815260200160002060008282546122419190613b31565b92505081905550816002600083815260200190815260200160002060006101000a81548173ffffffffffffffffffffffffffffffffffffffff021916908373ffffffffffffffffffffffffffffffffffffffff160217905550808273ffffffffffffffffffffffffffffffffffffffff16600073ffffffffffffffffffffffffffffffffffffffff167fddf252ad1be2c89b69c2b068fc378daa952ba7f163c4a11628f55a4df523b3ef60405160405180910390a4612302600083836128ad565b5050565b61230f82611c96565b61234e576040517f08c379a000000000000000000000000000000000000000000000000000000000815260040161234590613893565b60405180910390fd5b80600660008481526020019081526020016000209080519060200190612375929190612c76565b505050565b600081116123bd576040517f08c379a00000000000000000000000000000000000000000000000000000000081526004016123b4906139f3565b60405180910390fd5b6009543414612401576040517f08c379a00000000000000000000000000000000000000000000000000000000081526004016123f890613993565b60405180910390fd5b6040518060a001604052808381526020013373ffffffffffffffffffffffffffffffffffffffff1681526020013073ffffffffffffffffffffffffffffffffffffffff16815260200182815260200160001515815250600d60008481526020019081526020016000206000820151816000015560208201518160010160006101000a81548173ffffffffffffffffffffffffffffffffffffffff021916908373ffffffffffffffffffffffffffffffffffffffff16021790555060408201518160020160006101000a81548173ffffffffffffffffffffffffffffffffffffffff021916908373ffffffffffffffffffffffffffffffffffffffff1602179055506060820151816003015560808201518160040160006101000a81548160ff02191690831515021790555090505061253a333084611eaf565b817fb640004f1d14576d0c209e240cad0410e0d8c0c33a09375861fbadae2588a98d33308460006040516125719493929190613643565b60405180910390a25050565b8173ffffffffffffffffffffffffffffffffffffffff168373ffffffffffffffffffffffffffffffffffffffff1614156125ec576040517f08c379a00000000000000000000000000000000000000000000000000000000081526004016125e3906137f3565b60405180910390fd5b80600560008573ffffffffffffffffffffffffffffffffffffffff1673ffffffffffffffffffffffffffffffffffffffff16815260200190815260200160002060008473ffffffffffffffffffffffffffffffffffffffff1673ffffffffffffffffffffffffffffffffffffffff16815260200190815260200160002060006101000a81548160ff0219169083151502179055508173ffffffffffffffffffffffffffffffffffffffff168373ffffffffffffffffffffffffffffffffffffffff167f17307eab39ab6107e8899845ad3d59bd9653f200f220920489ca2b5937696c31836040516126dd91906136f6565b60405180910390a3505050565b6126f5848484611eaf565b612701848484846128b2565b612740576040517f08c379a000000000000000000000000000000000000000000000000000000000815260040161273790613753565b60405180910390fd5b50505050565b6000600a546103e8836127599190613b87565b6127639190613bb8565b9050919050565b6000600b546103e88361277d9190613b87565b6127879190613bb8565b9050919050565b606060405180602001604052806000815250905090565b60606127b082611c96565b6127ef576040517f08c379a00000000000000000000000000000000000000000000000000000000081526004016127e690613953565b60405180910390fd5b60006127f961278e565b905060008151116128195760405180602001604052806000815250612844565b8061282384612a49565b604051602001612834929190613604565b6040516020818303038152906040525b915050919050565b60008160000154905060008111612898576040517f08c379a000000000000000000000000000000000000000000000000000000000815260040161288f90613733565b60405180910390fd5b6001810382600001819055505050565b505050565b505050565b60006128d38473ffffffffffffffffffffffffffffffffffffffff16612bf6565b15612a3c578373ffffffffffffffffffffffffffffffffffffffff1663150b7a026128fc611d02565b8786866040518563ffffffff1660e01b815260040161291e9493929190613688565b602060405180830381600087803b15801561293857600080fd5b505af192505050801561296957506040513d601f19601f820116820180604052508101906129669190613022565b60015b6129ec573d8060008114612999576040519150601f19603f3d011682016040523d82523d6000602084013e61299e565b606091505b506000815114156129e4576040517f08c379a00000000000000000000000000000000000000000000000000000000081526004016129db90613753565b60405180910390fd5b805181602001fd5b63150b7a0260e01b7bffffffffffffffffffffffffffffffffffffffffffffffffffffffff1916817bffffffffffffffffffffffffffffffffffffffffffffffffffffffff191614915050612a41565b600190505b949350505050565b60606000821415612a91576040518060400160405280600181526020017f30000000000000000000000000000000000000000000000000000000000000008152509050612bf1565b600082905060005b60008214612ac3578080612aac90613d71565b915050600a82612abc9190613b87565b9150612a99565b60008167ffffffffffffffff811115612b05577f4e487b7100000000000000000000000000000000000000000000000000000000600052604160045260246000fd5b6040519080825280601f01601f191660200182016040528015612b375781602001600182028036833780820191505090505b5090505b60008514612bea57600182612b509190613c12565b9150600a85612b5f9190613dba565b6030612b6b9190613b31565b60f81b818381518110612ba7577f4e487b7100000000000000000000000000000000000000000000000000000000600052603260045260246000fd5b60200101907effffffffffffffffffffffffffffffffffffffffffffffffffffffffffffff1916908160001a905350600a85612be39190613b87565b9450612b3b565b8093505050505b919050565b6000808273ffffffffffffffffffffffffffffffffffffffff163b119050919050565b6040518060a0016040528060008152602001600073ffffffffffffffffffffffffffffffffffffffff168152602001600073ffffffffffffffffffffffffffffffffffffffff168152602001600081526020016000151581525090565b828054612c8290613d0e565b90600052602060002090601f016020900481019282612ca45760008555612ceb565b82601f10612cbd57805160ff1916838001178555612ceb565b82800160010185558215612ceb579182015b82811115612cea578251825591602001919060010190612ccf565b5b509050612cf89190612cfc565b5090565b5b80821115612d15576000816000905550600101612cfd565b5090565b6000612d2c612d2784613a53565b613a2e565b905082815260208101848484011115612d4457600080fd5b612d4f848285613ccc565b509392505050565b6000612d6a612d6584613a84565b613a2e565b905082815260208101848484011115612d8257600080fd5b612d8d848285613ccc565b509392505050565b600081359050612da481614513565b92915050565b600081359050612db98161452a565b92915050565b600081359050612dce81614541565b92915050565b600081519050612de381614541565b92915050565b600082601f830112612dfa57600080fd5b8135612e0a848260208601612d19565b91505092915050565b600082601f830112612e2457600080fd5b8135612e34848260208601612d57565b91505092915050565b600081359050612e4c81614558565b92915050565b600060208284031215612e6457600080fd5b6000612e7284828501612d95565b91505092915050565b60008060408385031215612e8e57600080fd5b6000612e9c85828601612d95565b9250506020612ead85828601612d95565b9150509250929050565b600080600060608486031215612ecc57600080fd5b6000612eda86828701612d95565b9350506020612eeb86828701612d95565b9250506040612efc86828701612e3d565b9150509250925092565b60008060008060808587031215612f1c57600080fd5b6000612f2a87828801612d95565b9450506020612f3b87828801612d95565b9350506040612f4c87828801612e3d565b925050606085013567ffffffffffffffff811115612f6957600080fd5b612f7587828801612de9565b91505092959194509250565b60008060408385031215612f9457600080fd5b6000612fa285828601612d95565b9250506020612fb385828601612daa565b9150509250929050565b60008060408385031215612fd057600080fd5b6000612fde85828601612d95565b9250506020612fef85828601612e3d565b9150509250929050565b60006020828403121561300b57600080fd5b600061301984828501612dbf565b91505092915050565b60006020828403121561303457600080fd5b600061304284828501612dd4565b91505092915050565b6000806040838503121561305e57600080fd5b600083013567ffffffffffffffff81111561307857600080fd5b61308485828601612e13565b925050602061309585828601612e3d565b9150509250929050565b6000602082840312156130b157600080fd5b60006130bf84828501612e3d565b91505092915050565b600080604083850312156130db57600080fd5b60006130e985828601612e3d565b92505060206130fa85828601612e3d565b9150509250929050565b6000613110838361357e565b60a08301905092915050565b61312581613c58565b82525050565b61313481613c46565b82525050565b600061314582613ac5565b61314f8185613af3565b935061315a83613ab5565b8060005b8381101561318b5781516131728882613104565b975061317d83613ae6565b92505060018101905061315e565b5085935050505092915050565b6131a181613c6a565b82525050565b6131b081613c6a565b82525050565b60006131c182613ad0565b6131cb8185613b04565b93506131db818560208601613cdb565b6131e481613ea7565b840191505092915050565b60006131fa82613adb565b6132048185613b15565b9350613214818560208601613cdb565b61321d81613ea7565b840191505092915050565b600061323382613adb565b61323d8185613b26565b935061324d818560208601613cdb565b80840191505092915050565b6000613266601b83613b15565b915061327182613eb8565b602082019050919050565b6000613289603283613b15565b915061329482613ee1565b604082019050919050565b60006132ac602583613b15565b91506132b782613f30565b604082019050919050565b60006132cf601c83613b15565b91506132da82613f7f565b602082019050919050565b60006132f2603383613b15565b91506132fd82613fa8565b604082019050919050565b6000613315602483613b15565b915061332082613ff7565b604082019050919050565b6000613338601983613b15565b915061334382614046565b602082019050919050565b600061335b602c83613b15565b91506133668261406f565b604082019050919050565b600061337e603883613b15565b9150613389826140be565b604082019050919050565b60006133a1602a83613b15565b91506133ac8261410d565b604082019050919050565b60006133c4602983613b15565b91506133cf8261415c565b604082019050919050565b60006133e7602e83613b15565b91506133f2826141ab565b604082019050919050565b600061340a604083613b15565b9150613415826141fa565b604082019050919050565b600061342d602083613b15565b915061343882614249565b602082019050919050565b6000613450603183613b15565b915061345b82614272565b604082019050919050565b6000613473602a83613b15565b915061347e826142c1565b604082019050919050565b6000613496602c83613b15565b91506134a182614310565b604082019050919050565b60006134b9602f83613b15565b91506134c48261435f565b604082019050919050565b60006134dc602183613b15565b91506134e7826143ae565b604082019050919050565b60006134ff602483613b15565b915061350a826143fd565b604082019050919050565b6000613522603183613b15565b915061352d8261444c565b604082019050919050565b6000613545603083613b15565b91506135508261449b565b604082019050919050565b6000613568601c83613b15565b9150613573826144ea565b602082019050919050565b60a08201600082015161359460008501826135e6565b5060208201516135a7602085018261311c565b5060408201516135ba604085018261311c565b5060608201516135cd60608501826135e6565b5060808201516135e06080850182613198565b50505050565b6135ef81613cc2565b82525050565b6135fe81613cc2565b82525050565b60006136108285613228565b915061361c8284613228565b91508190509392505050565b600060208201905061363d600083018461312b565b92915050565b6000608082019050613658600083018761312b565b613665602083018661312b565b61367260408301856135f5565b61367f60608301846131a7565b95945050505050565b600060808201905061369d600083018761312b565b6136aa602083018661312b565b6136b760408301856135f5565b81810360608301526136c981846131b6565b905095945050505050565b600060208201905081810360008301526136ee818461313a565b905092915050565b600060208201905061370b60008301846131a7565b92915050565b6000602082019050818103600083015261372b81846131ef565b905092915050565b6000602082019050818103600083015261374c81613259565b9050919050565b6000602082019050818103600083015261376c8161327c565b9050919050565b6000602082019050818103600083015261378c8161329f565b9050919050565b600060208201905081810360008301526137ac816132c2565b9050919050565b600060208201905081810360008301526137cc816132e5565b9050919050565b600060208201905081810360008301526137ec81613308565b9050919050565b6000602082019050818103600083015261380c8161332b565b9050919050565b6000602082019050818103600083015261382c8161334e565b9050919050565b6000602082019050818103600083015261384c81613371565b9050919050565b6000602082019050818103600083015261386c81613394565b9050919050565b6000602082019050818103600083015261388c816133b7565b9050919050565b600060208201905081810360008301526138ac816133da565b9050919050565b600060208201905081810360008301526138cc816133fd565b9050919050565b600060208201905081810360008301526138ec81613420565b9050919050565b6000602082019050818103600083015261390c81613443565b9050919050565b6000602082019050818103600083015261392c81613466565b9050919050565b6000602082019050818103600083015261394c81613489565b9050919050565b6000602082019050818103600083015261396c816134ac565b9050919050565b6000602082019050818103600083015261398c816134cf565b9050919050565b600060208201905081810360008301526139ac816134f2565b9050919050565b600060208201905081810360008301526139cc81613515565b9050919050565b600060208201905081810360008301526139ec81613538565b9050919050565b60006020820190508181036000830152613a0c8161355b565b9050919050565b6000602082019050613a2860008301846135f5565b92915050565b6000613a38613a49565b9050613a448282613d40565b919050565b6000604051905090565b600067ffffffffffffffff821115613a6e57613a6d613e78565b5b613a7782613ea7565b9050602081019050919050565b600067ffffffffffffffff821115613a9f57613a9e613e78565b5b613aa882613ea7565b9050602081019050919050565b6000819050602082019050919050565b600081519050919050565b600081519050919050565b600081519050919050565b6000602082019050919050565b600082825260208201905092915050565b600082825260208201905092915050565b600082825260208201905092915050565b600081905092915050565b6000613b3c82613cc2565b9150613b4783613cc2565b9250827fffffffffffffffffffffffffffffffffffffffffffffffffffffffffffffffff03821115613b7c57613b7b613deb565b5b828201905092915050565b6000613b9282613cc2565b9150613b9d83613cc2565b925082613bad57613bac613e1a565b5b828204905092915050565b6000613bc382613cc2565b9150613bce83613cc2565b9250817fffffffffffffffffffffffffffffffffffffffffffffffffffffffffffffffff0483118215151615613c0757613c06613deb565b5b828202905092915050565b6000613c1d82613cc2565b9150613c2883613cc2565b925082821015613c3b57613c3a613deb565b5b828203905092915050565b6000613c5182613ca2565b9050919050565b6000613c6382613ca2565b9050919050565b60008115159050919050565b60007fffffffff0000000000000000000000000000000000000000000000000000000082169050919050565b600073ffffffffffffffffffffffffffffffffffffffff82169050919050565b6000819050919050565b82818337600083830152505050565b60005b83811015613cf9578082015181840152602081019050613cde565b83811115613d08576000848401525b50505050565b60006002820490506001821680613d2657607f821691505b60208210811415613d3a57613d39613e49565b5b50919050565b613d4982613ea7565b810181811067ffffffffffffffff82111715613d6857613d67613e78565b5b80604052505050565b6000613d7c82613cc2565b91507fffffffffffffffffffffffffffffffffffffffffffffffffffffffffffffffff821415613daf57613dae613deb565b5b600182019050919050565b6000613dc582613cc2565b9150613dd083613cc2565b925082613de057613ddf613e1a565b5b828206905092915050565b7f4e487b7100000000000000000000000000000000000000000000000000000000600052601160045260246000fd5b7f4e487b7100000000000000000000000000000000000000000000000000000000600052601260045260246000fd5b7f4e487b7100000000000000000000000000000000000000000000000000000000600052602260045260246000fd5b7f4e487b7100000000000000000000000000000000000000000000000000000000600052604160045260246000fd5b6000601f19601f8301169050919050565b7f436f756e7465723a2064656372656d656e74206f766572666c6f770000000000600082015250565b7f4552433732313a207472616e7366657220746f206e6f6e20455243373231526560008201527f63656976657220696d706c656d656e7465720000000000000000000000000000602082015250565b7f4552433732313a207472616e736665722066726f6d20696e636f72726563742060008201527f6f776e6572000000000000000000000000000000000000000000000000000000602082015250565b7f4552433732313a20746f6b656e20616c7265616479206d696e74656400000000600082015250565b7f4f6e6c79206d61726b6574706c616365206f776e65722063616e20757064617460008201527f6520746865206c697374696e6720707269636500000000000000000000000000602082015250565b7f4552433732313a207472616e7366657220746f20746865207a65726f2061646460008201527f7265737300000000000000000000000000000000000000000000000000000000602082015250565b7f4552433732313a20617070726f766520746f2063616c6c657200000000000000600082015250565b7f4552433732313a206f70657261746f7220717565727920666f72206e6f6e657860008201527f697374656e7420746f6b656e0000000000000000000000000000000000000000602082015250565b7f4552433732313a20617070726f76652063616c6c6572206973206e6f74206f7760008201527f6e6572206e6f7220617070726f76656420666f7220616c6c0000000000000000602082015250565b7f4552433732313a2062616c616e636520717565727920666f7220746865207a6560008201527f726f206164647265737300000000000000000000000000000000000000000000602082015250565b7f4552433732313a206f776e657220717565727920666f72206e6f6e657869737460008201527f656e7420746f6b656e0000000000000000000000000000000000000000000000602082015250565b7f45524337323155524953746f726167653a2055524920736574206f66206e6f6e60008201527f6578697374656e7420746f6b656e000000000000000000000000000000000000602082015250565b7f506c65617365207375626d6974207468652061736b696e67207072696365206960008201527f6e206f7264657220746f20636f6d706c65746520746865207075726368617365602082015250565b7f4552433732313a206d696e7420746f20746865207a65726f2061646472657373600082015250565b7f45524337323155524953746f726167653a2055524920717565727920666f722060008201527f6e6f6e6578697374656e7420746f6b656e000000000000000000000000000000602082015250565b7f4f6e6c79206974656d206f776e65722063616e20706572666f726d207468697360008201527f206f7065726174696f6e00000000000000000000000000000000000000000000602082015250565b7f4552433732313a20617070726f76656420717565727920666f72206e6f6e657860008201527f697374656e7420746f6b656e0000000000000000000000000000000000000000602082015250565b7f4552433732314d657461646174613a2055524920717565727920666f72206e6f60008201527f6e6578697374656e7420746f6b656e0000000000000000000000000000000000602082015250565b7f4552433732313a20617070726f76616c20746f2063757272656e74206f776e6560008201527f7200000000000000000000000000000000000000000000000000000000000000602082015250565b7f5072696365206d75737420626520657175616c20746f206c697374696e67207060008201527f7269636500000000000000000000000000000000000000000000000000000000602082015250565b7f4552433732313a207472616e736665722063616c6c6572206973206e6f74206f60008201527f776e6572206e6f7220617070726f766564000000000000000000000000000000602082015250565b7f4f6e6c79206d61726b6574706c616365206f776e65722063616e20757064617460008201527f65206c697374696e672070726963652e00000000000000000000000000000000602082015250565b7f5072696365206d757374206265206174206c6561737420312077656900000000600082015250565b61451c81613c46565b811461452757600080fd5b50565b61453381613c6a565b811461453e57600080fd5b50565b61454a81613c76565b811461455557600080fd5b50565b61456181613cc2565b811461456c57600080fd5b5056fea2646970667358221220a3b4588c324c3b65c6a6ace36cf2a8bae2708153c746357246ce7efa812aeac864736f6c63430008040033",
  "linkReferences": {},
  "deployedLinkReferences": {}
}